S0130000617474696E795F6D616B652E737265637B
S113000019C020C01FC01EC01DC01CC01BC01AC008
S113001019C018C017C016C015C014C013C012C030
S113002011C010C00FC00EC00DC00CC00BC00AC060
S113003009C008C011241FBECFEFCDBFDFE3DEBF70
S113004002D046C0DDCFE0E0F4E088E0818394E0B4
S11300509283828BA0EAB0E08C9183608C932CE134
S11300602A95F1F78689887F868B86898460868BBA
S11300708689877F868B81EC8093800690E08091CF
S1130080080482FF0FC0E0E0F4E086818860868384
S11300903FE986E8A1E031508040A040E1F700C08C
S11300A00000EDCFE0E0F4E08581886085839B5F0C
S11300B090938106A2ECB2EA1197F1F700C0868111
S11300C088608683E2ECF2EA3197F1F700C0D7CF7B
S10700D0F894FFCFCE
S9030000FC
